:04000000BAEF37F02C
:106F740000EE60F05B0EEE6AE806FDE15F6A5E6AB1
:106F84005D6A5C6A000EF86E000150EF3EF0075037
:106F94000902F3CF0BF0F4CF0CF007500A02F350C0
:106FA4000C2608500902F3500C260BC007F00CC045
:106FB40008F01200000E036E000E026E000E036E47
:106FC400000E026E0350800A800F640ED8B4025C77
:106FD400D8B00BD0410E016EEE0EE82EFED7012E76
:106FE400FCD700D0024A032AEDD71200020E00019A
:106FF400606F020E0001616F030E0001626F020EEA
:107004000001636F040E0001646F020E0001656FDE
:10701400610E0001B66F000E0001B36F030E000194
:10702400B26F000E5D6E000E5C6E000E0001B56F57
:10703400030E0001B46F000E0001B96F000E0001D1
:10704400B76F1200000E066E0250800AF36E800EB7
:10705400F35C000ED8B4015CD8B006D0016C021EFB
:10706400D8B0022A010E066E0450800AF36E800E18
:10707400F35C000ED8B4035CD8B004D0036C041ED7
:10708400D8B0042A04500310D8B418D0010E056EE9
:1070940004D0D89003360436052A04AEFAD7035038
:1070A400015C04500258D8A004D00350015E04507F
:1070B400025AD89004320332052EF1D70650D8B4C0
:1070C40004D0016C021ED8B0022A01C001F002C033
:1070D40002F01200000E066E0450800AF36E800E59
:1070E400F35C000ED8B4035CD8B006D0036C041E65
:1070F400D8B0042A010E066E0250800AF36E800E88
:10710400F35C000ED8B4015CD8B006D0016C021E4A
:10711400D8B0022A010E061A000E086E000E076E81
:1071240004500310D8B41CD0010E056E04D0D890BE
:1071340003360436052A04AEFAD7D8900736083643
:107144000350015C04500258D8A005D00350015EDE
:107154000450025A0780D89004320332052EEDD72A
:107164000650D8B404D0076C081ED8B0082A07C04B
:1071740001F008C002F01200026E38D001A001D064
:107184008A8001B001D08A904AD001A001D08A82BD
:1071940001B001D08A9243D001A001D08A8401B009
:1071A40001D08A943CD001A001D08A8601B001D0DC
:1071B4008A9635D001A001D08A8801B001D08A987E
:1071C4002ED001A001D08A8A01B001D08A9A27D09A
:1071D40001A001D08A8C01B001D08A9C20D001A0EA
:1071E40001D08A8E01B001D08A9E19D00250000AC3
:1071F400D8B4C4D7010AD8B4C8D7030AD8B4CCD7F2
:10720400010AD8B4D0D7070AD8B4D4D7010AD8B45D
:10721400D8D7030AD8B4DCD7010AD8B4E0D712000F
:10722400026E38D001A001D08C8001B001D08C90C6
:107234004AD001A001D08C8201B001D08C9243D0FD
:1072440001A001D08C8401B001D08C943CD001A069
:1072540001D08C8601B001D08C9635D001A001D02C
:107264008C8801B001D08C982ED001A001D08C8ADA
:1072740001B001D08C9A27D001A001D08C8C01B030
:1072840001D08C9C20D001A001D08C8E01B001D003
:107294008C9E19D00250000AD8B4C4D7010AD8B4BD
:1072A400C8D7030AD8B4CCD7010AD8B4D0D7070AB0
:1072B400D8B4D4D7010AD8B4D8D7030AD8B4DCD701
:1072C400010AD8B4E0D712000001B44BB52B095021
:1072D400070B5E6E09C001F00AC002F0000E046ED6
:1072E400080E036E6CEC38F001505F6E5CC00DF05C
:1072F4005DC00EF00DC001F00EC002F0000E046E71
:10730400280E036E24EC38F001C00DF002C00EF01C
:107314000001B3510E1803E10001B2510D18D8B4A5
:107324002DD0600E0B6E000E0C6ED8900D34D96EFD
:107334000E34DA6E0B50D9260C50DA225E50DF621E
:107344001AD00DC00BF00EC00CF0D8900B360C36D2
:10735400010E0B26000E0C220001600E0B24D96EC8
:107364000001000E0C20DA6E5F50DF6204D0000EC4
:107374000A6E000E06D00D4A0E2ABCD7000E0A6E05
:10738400010E096E1200010E5C240B6E000E5D20CE
:107394000C6E0BC001F00CC002F0000E046E280E3F
:1073A400036E24EC38F001C00BF002C00CF00001B5
:1073B400B3510C1803E10001B2510B18D8B44BD0EF
:1073C400600E076E000E086ED8900B34D96E0C3424
:1073D400DA6E0750D9260850DA22600E096E000EC4
:1073E4000A6ED8905C34E16E5D34E26E0950E12699
:1073F4000A50E222E750DF622BD00BC007F00CC02A
:1074040008F0D89007360836010E0726000E082229
:107414000001600E0724D96E0001000E0820DA6E08
:107424005CC009F05DC00AF0D89009360A36010E36
:107434000926000E0A220001600E0924E16E0001F3
:10744400000E0A20E26EE750DF6202D0010E04D083
:107454000B4A0C2A9ED7000E1200000E0C6E000E72
:107464000B6E000E0A6E000E096E0A50800A800F21
:10747400080ED8B4095CD8B079D0010E016E095059
:1074840012EC39F0000E0C6E000E0B6E0C50800ADC
:10749400800F080ED8B40B5CD8B026D009C005F014
:1074A4000AC006F0D89005360636D890053606365A
:1074B400D8900536063603C007F004C008F005501E
:1074C4000726065008220B500724D96E0C500820BA
:1074D400DA6E010EDF6205D0000E016E0B50BEECB9
:1074E40038F00B4A0C2AD2D7070E056E7D0EE82E13
:1074F400FED7052EFCD700F0000E0C6E000E0B6EAE
:107504000C50800A800F080ED8B40B5CD8B026D07B
:1075140009C005F00AC006F0D89005360636D890A2
:1075240005360636D8900536063603C007F004C083
:1075340008F005500726065008220B500724D96E80
:107544000C500820DA6E010EDF6205D0010E016EC8
:107554000B50BEEC38F00B4A0C2AD2D7000E016E49
:10756400095012EC39F0094A0A2A7FD71200600E3A
:10757400016E000E026ED8905C34D96E5D34DA6E02
:107584000150D9260250DA22DF50036E0350046EF4
:10759400056A5CC001F05DC002F0D8900136023685
:1075A400010E0126000E02220001600E0124D96E94
:1075B4000001000E0220DA6EDF50036E0350066EE7
:1075C400076A30D007500610D8A404D0000E076E06
:1075D400080E066E0606D8A0070632D0064A072A09
:1075E4000650080A0710D8A42BD0000E076E000E10
:1075F400066E26D005500410D8A404D0000E056EE3
:10760400080E046E0406D8A005061AD0044A052AFA
:107614000450080A0510D8A413D0000E056E000EFD
:10762400046E0ED00001B651610AD8B4E3D7050A3E
:10763400D8B4ECD7170AD8B4D1D7040AD8B4C2D76F
:107644005D505C10D8A404D0000E5D6E280E5C6EF4
:107654005C06D8A05D06600E016E000E026ED89026
:107664005C34D96E5D34DA6E0150D9260250DA22C8
:1076740004C0DFFF5CC001F05DC002F0D8900136A9
:107684000236010E0126000E02220001600E0124C2
:10769400D96E0001000E0220DA6E06C0DFFF120070
:1076A40093909392939493969398939A939C939E86
:1076B40095909592959495969598959A959C959E66
:1076C40094829484948C948E8A908A928A948A96D2
:1076D4008A988A9A8A9C8A9E8C808C828C848C86D6
:1076E4008C888C8A8C8C8C8E000E0B6E000E0A6E2D
:1076F400000E096E000E086E0950800A800F280ED5
:10770400D8B4085CD8B029D0000E0B6E000E0A6EF7
:107714000B50800A800F020ED8B40A5CD8B01AD07D
:1077240008C004F009C005F0D89004360536600E90
:10773400066E000E076E04500626055007220A50F6
:107744000624D96E0B500720DA6E000EDF6E0A4A4B
:107754000B2ADED7084A092ACFD7DCEC37F0010E12
:10776400016E000EBEEC38F0010E016E010EBEEC8F
:1077740038F0010E016E020EBEEC38F0010E016EFF
:10778400030EBEEC38F0010E016E040EBEEC38F0B0
:10779400010E016E050EBEEC38F0010E016E060EF0
:1077A400BEEC38F0010E016E070EBEEC38F0000E90
:1077B400016E000E12EC39F0000E016E010E12EC97
:1077C40039F0000E016E020E12EC39F0000E016E5B
:1077D400030E12EC39F0000E016E040E12EC39F0B7
:1077E400000E016E050E12EC39F0000E016E060E4D
:1077F40012EC39F0000E016E070E12EC39F0120093
:10780400010E016E5E5012EC39F0000E016E5F50F5
:10781400BEEC38F0070E076E7D0EE82EFED7072E5D
:10782400FCD700F0000E016E5E5012EC39F0010E30
:10783400016E5F50BEEC38F05CC009F05DC00AF028
:10784400010E016E600E076E000E086ED8900934AA
:10785400D96E0A34DA6E0750D9260850DA22DF507E
:1078640012EC39F0000E016E09C007F00AC008F0EE
:10787400D89007360836010E0726000E08220001AC
:10788400600E0724D96E0001000E0820DA6EDF5066
:10789400BEEC38F0070E076E7D0EE82EFED7072EDD
:1078A400FCD700F0000E016E600E076E000E086E2D
:1078B400D8900934D96E0A34DA6E0750D9260850A4
:1078C400DA22DF5012EC39F0010E016E09C007F024
:1078D4000AC008F0D89007360836010E0726000EB5
:1078E40008220001600E0724D96E0001000E082052
:1078F400DA6EDF50BEEC38F009C001F00AC002F0C5
:10790400000E046E280E036E24EC38F001C009F05A
:1079140002C00AF00001B3510A1803E10001B25198
:107924000918D8B45FD0010E016E600E076E000E08
:10793400086ED8900934D96E0A34DA6E0750D92605
:107944000850DA22DF5012EC39F0000E016E09C043
:1079540007F00AC008F0D89007360836010E07264B
:10796400000E08220001600E0724D96E0001000EEB
:107974000820DA6EDF50BEEC38F0070E076E7D0E7D
:10798400E82EFED7072EFCD700F0000E016E600E25
:10799400076E000E086ED8900934D96E0A34DA6E78
:1079A4000750D9260850DA22DF5012EC39F0010EC4
:1079B400016E09C007F00AC008F0D89007360836EF
:1079C400010E0726000E08220001600E0724D96E5E
:1079D4000001000E0820DA6EDF50BEEC38F0094AD0
:1079E4000A2A8AD71200000E546E000E536E5450A9
:1079F400800A800F080ED8B4535CD8B02FD0000E84
:107A0400526E000E516E5250800A800F080ED8B488
:107A1400515CD8B020D053C00DF054C00EF0D890B3
:107A24000D360E36D8900D360E36D8900D360E36ED
:107A3400110E0F6E000E106E0D500F260E501022F8
:107A440051500F24D96E52501020DA6E000EDF6EA2
:107A5400514A522AD8D7534A542AC9D7010E1B6E09
:107A6400010E236E010E2B6E010E336E010E3B6E62
:107A7400010E1C6E010E1D6E010E2C6E010E3C6E6D
:107A8400010E3D6E000E546E000E536E5450800A6B
:107A9400800FC80ED8B4535CD8B009D0000E046E61
:107AA400110E036E2FEC3AF0534A542AEFD78A8012
:107AB4008A828A848A868A888A8A8A8C8A8E8C9028
:107AC4008C928C948C968C988C9A8C9C8C9E000EA8
:107AD400546E000E536E5450800A800F080ED8B4B2
:107AE400535CD8B02FD0000E526E000E516E52501F
:107AF400800A800F080ED8B4515CD8B020D053C08F
:107B04000DF054C00EF0D8900D360E36D8900D36C8
:107B14000E36D8900D360E36110E0F6E000E106E06
:107B24000D500F260E50102251500F24D96E525072
:107B34001020DA6E000EDF6E514A522AD8D7534A0B
:107B4400542AC9D7010E1D6E010E1C6E010E1B6E48
:107B5400010E236E010E2B6E010E2C6E010E2D6E86
:107B6400010E356E010E3D6E010E3C6E010E3B6E34
:107B7400000E546E000E536E5450800A800FC80ECF
:107B8400D8B4535CD8B009D0000E046E110E036E45
:107B94002FEC3AF0534A542AEFD78A808A828A8497
:107BA4008A868A888A8A8A8C8A8E8C908C928C9413
:107BB4008C968C988C9A8C9C8C9E000E546E000E25
:107BC400536E5450800A800F080ED8B4535CD8B05A
:107BD4002FD0000E526E000E516E5250800A800F4C
:107BE400080ED8B4515CD8B020D053C00DF054C0A6
:107BF4000EF0D8900D360E36D8900D360E36D8903D
:107C04000D360E36110E0F6E000E106E0D500F262F
:107C14000E50102251500F24D96E52501020DA6E9B
:107C2400000EDF6E514A522AD8D7534A542AC9D774
:107C3400010E1C6E010E256E010E246E010E2C6EBB
:107C4400010E346E010E3C6E010E3D6E010E3B6E54
:107C5400000E546E000E536E5450800A800FC80EEE
:107C6400D8B4535CD8B009D0000E046E110E036E64
:107C74002FEC3AF0534A542AEFD78A808A828A84B6
:107C84008A868A888A8A8A8C8A8E8C908C928C9432
:107C94008C968C988C9A8C9C8C9E120052EC3BF0A7
:107CA400F5EC3CF0F8EC37F0000E0001C06F1E0E4E
:107CB4000001BF6F0C0E0001BC6F020E0001BD6F0E
:107CC400010E0001BB6F82BC82AE05D0040E000120
:107CD400BD6F180E09D082AC04D0100E0001BC6F29
:107CE40008D082AE06D0140E0001BC6F020E000153
:107CF400BB6F000E0001C06F120E0001BF6F26D0D3
:107D0400000E046E050E036EBFC001F0C0C002F089
:107D140024EC38F0010E0124076E000E0220086ED8
:107D2400000E0A6E090E096EC9EC37F00750000107
:107D3400BF2708500001C0233F0E0001BF17000EEB
:107D44000001C0170001B407D8A0B507BFC009F0EF
:107D5400C0C00AF066EC39F00A500910D8B4D0D784
:107D6400B4C001F0B5C002F00001BBC003F0046A66
:107D74006CEC38F0015000080001BC250001BE6F16
:107D84000001BD510001BE5DD8A0BDC0BEF0000E13
:107D94000001C16F04D002EC3CF00001C12B0001D2
:107DA400BE510001C15DD8A0F6D782A206D0000161
:107DB400B96703D0010E0001BA6F82A406D0000196
:107DC400B76703D0010E0001B86F0001B96725D071
:107DD4000001BA05D8A421D0010E0001B96F000E2C
:107DE4000001BA6FB6C0C1F00AD0640E05D0610EAE
:107DF40003D0770E01D0730E0001B66F0ED00001D0
:107E0400C151610AD8B4F5D7050AD8B4F4D7170A12
:107E1400D8B4EDD7040AD8B4E8D70001B905D8B46A
:107E240082B203D0000E0001B96F000E0001C16FD1
:107E340004D002EC3CF00001C12B0001BE51000152
:107E4400C15DD8A0F6D70001B76725D00001B805F9
:107E5400D8A421D0010E0001B76F000E0001B86F45
:107E6400B6C0C1F00AD0610E05D0640E03D0730E03
:107E740001D0770E0001B66F0ED00001C151610A26
:107E8400D8B4F5D7050AD8B4F4D7170AD8B4EDD7BF
:107E9400040AD8B4E8D70001B705D8B482B403D033
:107EA400000E0001B76FB9EC3AF0600E5A6E000E86
:107EB4005B6ED8905C34D96E5D34DA6E5A50D92634
:107EC4005B50DA225E50DF6217D05CC05AF05DC0AE
:107ED4005BF0D8905A365B36010E5A26000E5B22B0
:107EE4000001600E5A24D96E0001000E5B20DA6E88
:107EF400DF505F18D8B436D00001B351B211D8A402
:107F040006D0000E0001B36F280E0001B26F00010D
:107F1400B207D8A0B30730D0000E046E050E036E6E
:107F2400BFC001F0C0C002F024EC38F0010E0124FF
:107F3400076E000E0220086E000E0A6E090E096E0E
:107F4400C9EC37F007500001BF2708500001C023D7
:107F54003F0E0001BF17000E0001C0170001B40757
:107F6400D8A0B507BFC009F0C0C00AF066EC39F06C
:107F74000A500910D8B4D0D7000E0001C16F04D044
:107F840002EC3CF00001C12B0001BE510001C15DB7
:107F9400D8A0F6D7C5EC39F05A6E5A04D8B47ED6B8
:107FA40082A206D00001B96703D0010E0001BA6FA6
:107FB40082A406D00001B76703D0010E0001B86F98
:107FC400000E0001C16F04D002EC3CF00001C12B93
:107FD4000001BE510001C15DD8A0F6D70001BF4B1E
:107FE400C02B0001BF51400AC011D8A4B9D6000E5D
:0C7FF4000001C06F000E0001BF6FB2D68C
:020000040020DA
:08000000FFFFFFFFFFFFFFFF00
:020000040030CA
:0E0000002408191EFF8385FF0FC00FE00F407C
:00000001FF
