:04000000A9EF3FF035
:107F5200000EF86E0001AEEF3FF08A808A828A84BA
:107F62008A868A888A8A8A8C8A8E8C908C928C9451
:107F72008C968C988C9A8C9C8C9EDDEC3FF0FDD775
:107F8200000E036E000E026E000E036E000E026EF5
:107F92000350800A800F640ED8B4025CD8B00BD0B4
:107FA200410E016EEE0EE82EFED7012EFCD700D058
:107FB200024A032AEDD712009390939293949396D8
:107FC2009398939A939C939E959095929594959657
:107FD2009598959A959C959E8A908A928A948A966B
:107FE2008A988A9A8A9C8A9E8C808C828C848C86BF
:0E7FF2008C888C8A8C8C8C8EC1EC3FF0120037
:020000040020DA
:08000000FFFFFFFFFFFFFFFF00
:020000040030CA
:0E0000002408191EFF8385FF0FC00FE00F407C
:00000001FF
